{
  "address": "0x0fD1D2cBC1871d1Aa86BE4bAe1b01802cb21AAC4",
  "abi": [
    {
      "inputs": [],
      "stateMutability": "nonpayable",
      "type": "constructor"
    },
    {
      "anonymous": false,
      "inputs": [
        {
          "indexed": false,
          "internalType": "address",
          "name": "previousAdmin",
          "type": "address"
        },
        {
          "indexed": false,
          "internalType": "address",
          "name": "newAdmin",
          "type": "address"
        }
      ],
      "name": "AdminChanged",
      "type": "event"
    },
    {
      "anonymous": false,
      "inputs": [
        {
          "indexed": true,
          "internalType": "address",
          "name": "owner",
          "type": "address"
        },
        {
          "indexed": true,
          "internalType": "address",
          "name": "spender",
          "type": "address"
        },
        {
          "indexed": false,
          "internalType": "uint256",
          "name": "value",
          "type": "uint256"
        }
      ],
      "name": "Approval",
      "type": "event"
    },
    {
      "anonymous": false,
      "inputs": [
        {
          "indexed": true,
          "internalType": "address",
          "name": "beacon",
          "type": "address"
        }
      ],
      "name": "BeaconUpgraded",
      "type": "event"
    },
    {
      "anonymous": false,
      "inputs": [
        {
          "indexed": true,
          "internalType": "address",
          "name": "delegator",
          "type": "address"
        },
        {
          "indexed": true,
          "internalType": "address",
          "name": "fromDelegate",
          "type": "address"
        },
        {
          "indexed": true,
          "internalType": "address",
          "name": "toDelegate",
          "type": "address"
        }
      ],
      "name": "DelegateChanged",
      "type": "event"
    },
    {
      "anonymous": false,
      "inputs": [
        {
          "indexed": true,
          "internalType": "address",
          "name": "delegate",
          "type": "address"
        },
        {
          "indexed": false,
          "internalType": "uint256",
          "name": "previousBalance",
          "type": "uint256"
        },
        {
          "indexed": false,
          "internalType": "uint256",
          "name": "newBalance",
          "type": "uint256"
        }
      ],
      "name": "DelegateVotesChanged",
      "type": "event"
    },
    {
      "anonymous": false,
      "inputs": [
        {
          "indexed": false,
          "internalType": "uint8",
          "name": "version",
          "type": "uint8"
        }
      ],
      "name": "Initialized",
      "type": "event"
    },
    {
      "anonymous": false,
      "inputs": [
        {
          "indexed": false,
          "internalType": "address",
          "name": "account",
          "type": "address"
        }
      ],
      "name": "Paused",
      "type": "event"
    },
    {
      "anonymous": false,
      "inputs": [
        {
          "indexed": true,
          "internalType": "bytes32",
          "name": "role",
          "type": "bytes32"
        },
        {
          "indexed": true,
          "internalType": "bytes32",
          "name": "previousAdminRole",
          "type": "bytes32"
        },
        {
          "indexed": true,
          "internalType": "bytes32",
          "name": "newAdminRole",
          "type": "bytes32"
        }
      ],
      "name": "RoleAdminChanged",
      "type": "event"
    },
    {
      "anonymous": false,
      "inputs": [
        {
          "indexed": true,
          "internalType": "bytes32",
          "name": "role",
          "type": "bytes32"
        },
        {
          "indexed": true,
          "internalType": "address",
          "name": "account",
          "type": "address"
        },
        {
          "indexed": true,
          "internalType": "address",
          "name": "sender",
          "type": "address"
        }
      ],
      "name": "RoleGranted",
      "type": "event"
    },
    {
      "anonymous": false,
      "inputs": [
        {
          "indexed": true,
          "internalType": "bytes32",
          "name": "role",
          "type": "bytes32"
        },
        {
          "indexed": true,
          "internalType": "address",
          "name": "account",
          "type": "address"
        },
        {
          "indexed": true,
          "internalType": "address",
          "name": "sender",
          "type": "address"
        }
      ],
      "name": "RoleRevoked",
      "type": "event"
    },
    {
      "anonymous": false,
      "inputs": [
        {
          "indexed": true,
          "internalType": "address",
          "name": "from",
          "type": "address"
        },
        {
          "indexed": true,
          "internalType": "address",
          "name": "to",
          "type": "address"
        },
        {
          "indexed": false,
          "internalType": "uint256",
          "name": "value",
          "type": "uint256"
        }
      ],
      "name": "Transfer",
      "type": "event"
    },
    {
      "anonymous": false,
      "inputs": [
        {
          "indexed": true,
          "internalType": "address",
          "name": "oldTF",
          "type": "address"
        },
        {
          "indexed": true,
          "internalType": "address",
          "name": "newTF",
          "type": "address"
        }
      ],
      "name": "TrustedForwarderChanged",
      "type": "event"
    },
    {
      "anonymous": false,
      "inputs": [
        {
          "indexed": false,
          "internalType": "address",
          "name": "account",
          "type": "address"
        }
      ],
      "name": "Unpaused",
      "type": "event"
    },
    {
      "anonymous": false,
      "inputs": [
        {
          "indexed": true,
          "internalType": "address",
          "name": "implementation",
          "type": "address"
        }
      ],
      "name": "Upgraded",
      "type": "event"
    },
    {
      "inputs": [],
      "name": "DEFAULT_ADMIN_ROLE",
      "outputs": [
        {
          "internalType": "bytes32",
          "name": "",
          "type": "bytes32"
        }
      ],
      "stateMutability": "view",
      "type": "function"
    },
    {
      "inputs": [],
      "name": "DOMAIN_SEPARATOR",
      "outputs": [
        {
          "internalType": "bytes32",
          "name": "",
          "type": "bytes32"
        }
      ],
      "stateMutability": "view",
      "type": "function"
    },
    {
      "inputs": [],
      "name": "FORWARDER_ROLE",
      "outputs": [
        {
          "internalType": "bytes32",
          "name": "",
          "type": "bytes32"
        }
      ],
      "stateMutability": "view",
      "type": "function"
    },
    {
      "inputs": [],
      "name": "PAUSER_ROLE",
      "outputs": [
        {
          "internalType": "bytes32",
          "name": "",
          "type": "bytes32"
        }
      ],
      "stateMutability": "view",
      "type": "function"
    },
    {
      "inputs": [],
      "name": "PROXY_ROLE",
      "outputs": [
        {
          "internalType": "bytes32",
          "name": "",
          "type": "bytes32"
        }
      ],
      "stateMutability": "view",
      "type": "function"
    },
    {
      "inputs": [
        {
          "internalType": "address",
          "name": "owner",
          "type": "address"
        },
        {
          "internalType": "address",
          "name": "spender",
          "type": "address"
        }
      ],
      "name": "allowance",
      "outputs": [
        {
          "internalType": "uint256",
          "name": "",
          "type": "uint256"
        }
      ],
      "stateMutability": "view",
      "type": "function"
    },
    {
      "inputs": [
        {
          "internalType": "address",
          "name": "spender",
          "type": "address"
        },
        {
          "internalType": "uint256",
          "name": "amount",
          "type": "uint256"
        }
      ],
      "name": "approve",
      "outputs": [
        {
          "internalType": "bool",
          "name": "",
          "type": "bool"
        }
      ],
      "stateMutability": "nonpayable",
      "type": "function"
    },
    {
      "inputs": [
        {
          "internalType": "address",
          "name": "spender",
          "type": "address"
        },
        {
          "internalType": "uint256",
          "name": "amount",
          "type": "uint256"
        }
      ],
      "name": "approveAndCall",
      "outputs": [
        {
          "internalType": "bool",
          "name": "",
          "type": "bool"
        }
      ],
      "stateMutability": "nonpayable",
      "type": "function"
    },
    {
      "inputs": [
        {
          "internalType": "address",
          "name": "spender",
          "type": "address"
        },
        {
          "internalType": "uint256",
          "name": "amount",
          "type": "uint256"
        },
        {
          "internalType": "bytes",
          "name": "data",
          "type": "bytes"
        }
      ],
      "name": "approveAndCall",
      "outputs": [
        {
          "internalType": "bool",
          "name": "",
          "type": "bool"
        }
      ],
      "stateMutability": "nonpayable",
      "type": "function"
    },
    {
      "inputs": [
        {
          "internalType": "address",
          "name": "account",
          "type": "address"
        }
      ],
      "name": "balanceOf",
      "outputs": [
        {
          "internalType": "uint256",
          "name": "",
          "type": "uint256"
        }
      ],
      "stateMutability": "view",
      "type": "function"
    },
    {
      "inputs": [
        {
          "internalType": "address",
          "name": "account",
          "type": "address"
        },
        {
          "internalType": "uint32",
          "name": "pos",
          "type": "uint32"
        }
      ],
      "name": "checkpoints",
      "outputs": [
        {
          "components": [
            {
              "internalType": "uint32",
              "name": "fromBlock",
              "type": "uint32"
            },
            {
              "internalType": "uint224",
              "name": "votes",
              "type": "uint224"
            }
          ],
          "internalType": "struct ERC20VotesUpgradeable.Checkpoint",
          "name": "",
          "type": "tuple"
        }
      ],
      "stateMutability": "view",
      "type": "function"
    },
    {
      "inputs": [],
      "name": "decimals",
      "outputs": [
        {
          "internalType": "uint8",
          "name": "",
          "type": "uint8"
        }
      ],
      "stateMutability": "view",
      "type": "function"
    },
    {
      "inputs": [
        {
          "internalType": "address",
          "name": "spender",
          "type": "address"
        },
        {
          "internalType": "uint256",
          "name": "subtractedValue",
          "type": "uint256"
        }
      ],
      "name": "decreaseAllowance",
      "outputs": [
        {
          "internalType": "bool",
          "name": "",
          "type": "bool"
        }
      ],
      "stateMutability": "nonpayable",
      "type": "function"
    },
    {
      "inputs": [
        {
          "internalType": "address",
          "name": "delegatee",
          "type": "address"
        }
      ],
      "name": "delegate",
      "outputs": [],
      "stateMutability": "nonpayable",
      "type": "function"
    },
    {
      "inputs": [
        {
          "internalType": "address",
          "name": "delegatee",
          "type": "address"
        },
        {
          "internalType": "uint256",
          "name": "nonce",
          "type": "uint256"
        },
        {
          "internalType": "uint256",
          "name": "expiry",
          "type": "uint256"
        },
        {
          "internalType": "uint8",
          "name": "v",
          "type": "uint8"
        },
        {
          "internalType": "bytes32",
          "name": "r",
          "type": "bytes32"
        },
        {
          "internalType": "bytes32",
          "name": "s",
          "type": "bytes32"
        }
      ],
      "name": "delegateBySig",
      "outputs": [],
      "stateMutability": "nonpayable",
      "type": "function"
    },
    {
      "inputs": [
        {
          "internalType": "address",
          "name": "account",
          "type": "address"
        }
      ],
      "name": "delegates",
      "outputs": [
        {
          "internalType": "address",
          "name": "",
          "type": "address"
        }
      ],
      "stateMutability": "view",
      "type": "function"
    },
    {
      "inputs": [],
      "name": "getChainId",
      "outputs": [
        {
          "internalType": "uint256",
          "name": "",
          "type": "uint256"
        }
      ],
      "stateMutability": "view",
      "type": "function"
    },
    {
      "inputs": [
        {
          "internalType": "uint256",
          "name": "blockNumber",
          "type": "uint256"
        }
      ],
      "name": "getPastTotalSupply",
      "outputs": [
        {
          "internalType": "uint256",
          "name": "",
          "type": "uint256"
        }
      ],
      "stateMutability": "view",
      "type": "function"
    },
    {
      "inputs": [
        {
          "internalType": "address",
          "name": "account",
          "type": "address"
        },
        {
          "internalType": "uint256",
          "name": "blockNumber",
          "type": "uint256"
        }
      ],
      "name": "getPastVotes",
      "outputs": [
        {
          "internalType": "uint256",
          "name": "",
          "type": "uint256"
        }
      ],
      "stateMutability": "view",
      "type": "function"
    },
    {
      "inputs": [
        {
          "internalType": "bytes32",
          "name": "role",
          "type": "bytes32"
        }
      ],
      "name": "getRoleAdmin",
      "outputs": [
        {
          "internalType": "bytes32",
          "name": "",
          "type": "bytes32"
        }
      ],
      "stateMutability": "view",
      "type": "function"
    },
    {
      "inputs": [
        {
          "internalType": "bytes32",
          "name": "role",
          "type": "bytes32"
        },
        {
          "internalType": "uint256",
          "name": "index",
          "type": "uint256"
        }
      ],
      "name": "getRoleMember",
      "outputs": [
        {
          "internalType": "address",
          "name": "",
          "type": "address"
        }
      ],
      "stateMutability": "view",
      "type": "function"
    },
    {
      "inputs": [
        {
          "internalType": "bytes32",
          "name": "role",
          "type": "bytes32"
        }
      ],
      "name": "getRoleMemberCount",
      "outputs": [
        {
          "internalType": "uint256",
          "name": "",
          "type": "uint256"
        }
      ],
      "stateMutability": "view",
      "type": "function"
    },
    {
      "inputs": [
        {
          "internalType": "address",
          "name": "account",
          "type": "address"
        }
      ],
      "name": "getVotes",
      "outputs": [
        {
          "internalType": "uint256",
          "name": "",
          "type": "uint256"
        }
      ],
      "stateMutability": "view",
      "type": "function"
    },
    {
      "inputs": [
        {
          "internalType": "bytes32",
          "name": "role",
          "type": "bytes32"
        },
        {
          "internalType": "address",
          "name": "account",
          "type": "address"
        }
      ],
      "name": "grantRole",
      "outputs": [],
      "stateMutability": "nonpayable",
      "type": "function"
    },
    {
      "inputs": [
        {
          "internalType": "bytes32",
          "name": "role",
          "type": "bytes32"
        },
        {
          "internalType": "address",
          "name": "account",
          "type": "address"
        }
      ],
      "name": "hasRole",
      "outputs": [
        {
          "internalType": "bool",
          "name": "",
          "type": "bool"
        }
      ],
      "stateMutability": "view",
      "type": "function"
    },
    {
      "inputs": [
        {
          "internalType": "address",
          "name": "spender",
          "type": "address"
        },
        {
          "internalType": "uint256",
          "name": "addedValue",
          "type": "uint256"
        }
      ],
      "name": "increaseAllowance",
      "outputs": [
        {
          "internalType": "bool",
          "name": "",
          "type": "bool"
        }
      ],
      "stateMutability": "nonpayable",
      "type": "function"
    },
    {
      "inputs": [
        {
          "internalType": "address",
          "name": "tokensOwner",
          "type": "address"
        }
      ],
      "name": "initialize",
      "outputs": [],
      "stateMutability": "nonpayable",
      "type": "function"
    },
    {
      "inputs": [
        {
          "internalType": "address",
          "name": "forwarder",
          "type": "address"
        }
      ],
      "name": "isTrustedForwarder",
      "outputs": [
        {
          "internalType": "bool",
          "name": "",
          "type": "bool"
        }
      ],
      "stateMutability": "view",
      "type": "function"
    },
    {
      "inputs": [],
      "name": "name",
      "outputs": [
        {
          "internalType": "string",
          "name": "",
          "type": "string"
        }
      ],
      "stateMutability": "view",
      "type": "function"
    },
    {
      "inputs": [
        {
          "internalType": "address",
          "name": "owner",
          "type": "address"
        }
      ],
      "name": "nonces",
      "outputs": [
        {
          "internalType": "uint256",
          "name": "",
          "type": "uint256"
        }
      ],
      "stateMutability": "view",
      "type": "function"
    },
    {
      "inputs": [
        {
          "internalType": "address",
          "name": "account",
          "type": "address"
        }
      ],
      "name": "numCheckpoints",
      "outputs": [
        {
          "internalType": "uint32",
          "name": "",
          "type": "uint32"
        }
      ],
      "stateMutability": "view",
      "type": "function"
    },
    {
      "inputs": [],
      "name": "pause",
      "outputs": [],
      "stateMutability": "nonpayable",
      "type": "function"
    },
    {
      "inputs": [],
      "name": "paused",
      "outputs": [
        {
          "internalType": "bool",
          "name": "",
          "type": "bool"
        }
      ],
      "stateMutability": "view",
      "type": "function"
    },
    {
      "inputs": [
        {
          "internalType": "address",
          "name": "owner",
          "type": "address"
        },
        {
          "internalType": "address",
          "name": "spender",
          "type": "address"
        },
        {
          "internalType": "uint256",
          "name": "value",
          "type": "uint256"
        },
        {
          "internalType": "uint256",
          "name": "deadline",
          "type": "uint256"
        },
        {
          "internalType": "uint8",
          "name": "v",
          "type": "uint8"
        },
        {
          "internalType": "bytes32",
          "name": "r",
          "type": "bytes32"
        },
        {
          "internalType": "bytes32",
          "name": "s",
          "type": "bytes32"
        }
      ],
      "name": "permit",
      "outputs": [],
      "stateMutability": "nonpayable",
      "type": "function"
    },
    {
      "inputs": [],
      "name": "proxiableUUID",
      "outputs": [
        {
          "internalType": "bytes32",
          "name": "",
          "type": "bytes32"
        }
      ],
      "stateMutability": "view",
      "type": "function"
    },
    {
      "inputs": [
        {
          "internalType": "bytes32",
          "name": "role",
          "type": "bytes32"
        },
        {
          "internalType": "address",
          "name": "account",
          "type": "address"
        }
      ],
      "name": "renounceRole",
      "outputs": [],
      "stateMutability": "nonpayable",
      "type": "function"
    },
    {
      "inputs": [
        {
          "internalType": "bytes32",
          "name": "role",
          "type": "bytes32"
        },
        {
          "internalType": "address",
          "name": "account",
          "type": "address"
        }
      ],
      "name": "revokeRole",
      "outputs": [],
      "stateMutability": "nonpayable",
      "type": "function"
    },
    {
      "inputs": [
        {
          "internalType": "address",
          "name": "forwarder",
          "type": "address"
        }
      ],
      "name": "setTrustedForwarder",
      "outputs": [],
      "stateMutability": "nonpayable",
      "type": "function"
    },
    {
      "inputs": [
        {
          "internalType": "bytes4",
          "name": "interfaceId",
          "type": "bytes4"
        }
      ],
      "name": "supportsInterface",
      "outputs": [
        {
          "internalType": "bool",
          "name": "",
          "type": "bool"
        }
      ],
      "stateMutability": "pure",
      "type": "function"
    },
    {
      "inputs": [],
      "name": "symbol",
      "outputs": [
        {
          "internalType": "string",
          "name": "",
          "type": "string"
        }
      ],
      "stateMutability": "view",
      "type": "function"
    },
    {
      "inputs": [],
      "name": "totalSupply",
      "outputs": [
        {
          "internalType": "uint256",
          "name": "",
          "type": "uint256"
        }
      ],
      "stateMutability": "view",
      "type": "function"
    },
    {
      "inputs": [
        {
          "internalType": "address",
          "name": "to",
          "type": "address"
        },
        {
          "internalType": "uint256",
          "name": "amount",
          "type": "uint256"
        }
      ],
      "name": "transfer",
      "outputs": [
        {
          "internalType": "bool",
          "name": "",
          "type": "bool"
        }
      ],
      "stateMutability": "nonpayable",
      "type": "function"
    },
    {
      "inputs": [
        {
          "internalType": "address",
          "name": "to",
          "type": "address"
        },
        {
          "internalType": "uint256",
          "name": "amount",
          "type": "uint256"
        }
      ],
      "name": "transferAndCall",
      "outputs": [
        {
          "internalType": "bool",
          "name": "",
          "type": "bool"
        }
      ],
      "stateMutability": "nonpayable",
      "type": "function"
    },
    {
      "inputs": [
        {
          "internalType": "address",
          "name": "to",
          "type": "address"
        },
        {
          "internalType": "uint256",
          "name": "amount",
          "type": "uint256"
        },
        {
          "internalType": "bytes",
          "name": "data",
          "type": "bytes"
        }
      ],
      "name": "transferAndCall",
      "outputs": [
        {
          "internalType": "bool",
          "name": "",
          "type": "bool"
        }
      ],
      "stateMutability": "nonpayable",
      "type": "function"
    },
    {
      "inputs": [
        {
          "internalType": "address",
          "name": "from",
          "type": "address"
        },
        {
          "internalType": "address",
          "name": "to",
          "type": "address"
        },
        {
          "internalType": "uint256",
          "name": "amount",
          "type": "uint256"
        }
      ],
      "name": "transferFrom",
      "outputs": [
        {
          "internalType": "bool",
          "name": "",
          "type": "bool"
        }
      ],
      "stateMutability": "nonpayable",
      "type": "function"
    },
    {
      "inputs": [
        {
          "internalType": "address",
          "name": "from",
          "type": "address"
        },
        {
          "internalType": "address",
          "name": "to",
          "type": "address"
        },
        {
          "internalType": "uint256",
          "name": "amount",
          "type": "uint256"
        },
        {
          "internalType": "bytes",
          "name": "data",
          "type": "bytes"
        }
      ],
      "name": "transferFromAndCall",
      "outputs": [
        {
          "internalType": "bool",
          "name": "",
          "type": "bool"
        }
      ],
      "stateMutability": "nonpayable",
      "type": "function"
    },
    {
      "inputs": [
        {
          "internalType": "address",
          "name": "from",
          "type": "address"
        },
        {
          "internalType": "address",
          "name": "to",
          "type": "address"
        },
        {
          "internalType": "uint256",
          "name": "amount",
          "type": "uint256"
        }
      ],
      "name": "transferFromAndCall",
      "outputs": [
        {
          "internalType": "bool",
          "name": "",
          "type": "bool"
        }
      ],
      "stateMutability": "nonpayable",
      "type": "function"
    },
    {
      "inputs": [],
      "name": "unpause",
      "outputs": [],
      "stateMutability": "nonpayable",
      "type": "function"
    },
    {
      "inputs": [
        {
          "internalType": "address",
          "name": "newImplementation",
          "type": "address"
        }
      ],
      "name": "upgradeTo",
      "outputs": [],
      "stateMutability": "nonpayable",
      "type": "function"
    },
    {
      "inputs": [
        {
          "internalType": "address",
          "name": "newImplementation",
          "type": "address"
        },
        {
          "internalType": "bytes",
          "name": "data",
          "type": "bytes"
        }
      ],
      "name": "upgradeToAndCall",
      "outputs": [],
      "stateMutability": "payable",
      "type": "function"
    }
  ],
  "transactionHash": "0xd9690e140b6f38d10e163604aea9ac8421547de0f09bbbf2a163375af2606d22",
  "args": [],
  "numDeployments": 1,
  "solcInputHash": "e27a8c498405a15adceb00fe90cf84e0",
  "bytecode": "0x60a06040523060601b6080523480156200001857600080fd5b506200002362000029565b620000eb565b600054610100900460ff1615620000965760405162461bcd60e51b815260206004820152602760248201527f496e697469616c697a61626c653a20636f6e747261637420697320696e697469604482015266616c697a696e6760c81b606482015260840160405180910390fd5b60005460ff9081161015620000e9576000805460ff191660ff9081179091556040519081527f7f26b83ff96e1f2b6a682f133852f6798a09c465da95921460cefb38474024989060200160405180910390a15b565b60805160601c6146d66200012660003960008181610e2901528181610ebf0152818161112b015281816111c101526112b801526146d66000f3fe6080604052600436106103295760003560e01c80636fcfff45116101a5578063c1d34b89116100ec578063d547741f11610095578063dd62ed3e1161006f578063dd62ed3e14610956578063e48bf15b1461099c578063e63ab1e9146109d0578063f1127ed814610a0457600080fd5b8063d547741f146108f6578063d8fbe99414610916578063da7422281461093657600080fd5b8063ca15c873116100c6578063ca15c87314610896578063cae9ca51146108b6578063d505accf146108d657600080fd5b8063c1d34b8914610836578063c3cda52014610856578063c4d66de81461087657600080fd5b806391d148541161014e578063a217fddf11610128578063a217fddf146107e1578063a457c2d7146107f6578063a9059cbb1461081657600080fd5b806391d148541461076657806395d89b41146107ac5780639ab24eb0146107c157600080fd5b80638456cb591161017f5780638456cb59146107115780638e539e8c146107265780639010d07c1461074657600080fd5b80636fcfff451461068657806370a08231146106bb5780637ecebe00146106f157600080fd5b80633644e515116102745780634000aea01161021d578063572b6c05116101f7578063572b6c05146105cb578063587cde1e146105fb5780635c19a95c1461064d5780635c975abb1461066d57600080fd5b80634000aea0146105835780634f1ef286146105a357806352d1902d146105b657600080fd5b8063395093511161024e578063395093511461052e5780633a46b1a81461054e5780633f4ba83a1461056e57600080fd5b80633644e515146104d957806336568abe146104ee5780633659cfe61461050e57600080fd5b8063248a9ca3116102d65780633177029f116102b05780633177029f146104725780633408e4701461049257806335f6fb87146104a557600080fd5b8063248a9ca3146104045780632f2ff15d14610434578063313ce5671461045657600080fd5b80631296ee62116103075780631296ee62146103a557806318160ddd146103c557806323b872dd146103e457600080fd5b806301ffc9a71461032e57806306fdde0314610363578063095ea7b314610385575b600080fd5b34801561033a57600080fd5b5061034e6103493660046142a5565b610a4e565b60405190151581526020015b60405180910390f35b34801561036f57600080fd5b50610378610c23565b60405161035a919061440c565b34801561039157600080fd5b5061034e6103a0366004614115565b610cb5565b3480156103b157600080fd5b5061034e6103c0366004614115565b610cd7565b3480156103d157600080fd5b506035545b60405190815260200161035a565b3480156103f057600080fd5b5061034e6103ff366004613fb9565b610cfa565b34801561041057600080fd5b506103d661041f36600461422e565b600090815260c9602052604090206001015490565b34801561044057600080fd5b5061045461044f366004614260565b610d28565b005b34801561046257600080fd5b506040516012815260200161035a565b34801561047e57600080fd5b5061034e61048d366004614115565b610d52565b34801561049e57600080fd5b50466103d6565b3480156104b157600080fd5b506103d67f3fb90a982568460bdf5505b984928e3c942db3525e60c25e39051cacec08b60f81565b3480156104e557600080fd5b506103d6610d6e565b3480156104fa57600080fd5b50610454610509366004614260565b610d7d565b34801561051a57600080fd5b50610454610529366004613f6b565b610e1e565b34801561053a57600080fd5b5061034e610549366004614115565b610fbc565b34801561055a57600080fd5b506103d6610569366004614115565b61100e565b34801561057a57600080fd5b50610454611082565b34801561058f57600080fd5b5061034e61059e36600461413f565b6110b4565b6104546105b13660046140c7565b611120565b3480156105c257600080fd5b506103d66112ab565b3480156105d757600080fd5b5061034e6105e6366004613f6b565b6101f8546001600160a01b0391821691161490565b34801561060757600080fd5b50610635610616366004613f6b565b6001600160a01b0390811660009081526101c660205260409020541690565b6040516001600160a01b03909116815260200161035a565b34801561065957600080fd5b50610454610668366004613f6b565b611370565b34801561067957600080fd5b5061012d5460ff1661034e565b34801561069257600080fd5b506106a66106a1366004613f6b565b611381565b60405163ffffffff909116815260200161035a565b3480156106c757600080fd5b506103d66106d6366004613f6b565b6001600160a01b031660009081526033602052604090205490565b3480156106fd57600080fd5b506103d661070c366004613f6b565b6113a4565b34801561071d57600080fd5b506104546113c3565b34801561073257600080fd5b506103d661074136600461422e565b6113f5565b34801561075257600080fd5b50610635610761366004614283565b611452565b34801561077257600080fd5b5061034e610781366004614260565b600091825260c9602090815260408084206001600160a01b0393909316845291905290205460ff1690565b3480156107b857600080fd5b5061037861146a565b3480156107cd57600080fd5b506103d66107dc366004613f6b565b611479565b3480156107ed57600080fd5b506103d6600081565b34801561080257600080fd5b5061034e610811366004614115565b611502565b34801561082257600080fd5b5061034e610831366004614115565b6115b9565b34801561084257600080fd5b5061034e610851366004613ff5565b6115d1565b34801561086257600080fd5b50610454610871366004614196565b61163f565b34801561088257600080fd5b50610454610891366004613f6b565b611775565b3480156108a257600080fd5b506103d66108b136600461422e565b611a32565b3480156108c257600080fd5b5061034e6108d136600461413f565b611a49565b3480156108e257600080fd5b506104546108f136600461405d565b611aad565b34801561090257600080fd5b50610454610911366004614260565b611c11565b34801561092257600080fd5b5061034e610931366004613fb9565b611c36565b34801561094257600080fd5b50610454610951366004613f6b565b611c53565b34801561096257600080fd5b506103d6610971366004613f86565b6001600160a01b03918216600090815260346020908152604080832093909416825291909152205490565b3480156109a857600080fd5b506103d67f77d72916e966418e6dc58a19999ae9934bef3f749f1547cde0a86e809f19c89b81565b3480156109dc57600080fd5b506103d67f65d7a28e3265b37a6474929f336521b332c1681b933f6cb9f3376673440d862a81565b348015610a1057600080fd5b50610a24610a1f3660046141ee565b611c86565b60408051825163ffffffff1681526020928301516001600160e01b0316928101929092520161035a565b60006001600160e01b031982167f01ffc9a7000000000000000000000000000000000000000000000000000000001480610ab157506001600160e01b031982167f36372b0700000000000000000000000000000000000000000000000000000000145b80610ae557506001600160e01b031982167fe78a39d800000000000000000000000000000000000000000000000000000000145b80610b1957506001600160e01b031982167f572b6c0500000000000000000000000000000000000000000000000000000000145b80610b4d57506001600160e01b031982167f9d8ff7da00000000000000000000000000000000000000000000000000000000145b80610b8157506001600160e01b031982167fb0202a1100000000000000000000000000000000000000000000000000000000145b80610bb557506001600160e01b031982167f7965db0b00000000000000000000000000000000000000000000000000000000145b80610be957506001600160e01b031982167f5a05180f00000000000000000000000000000000000000000000000000000000145b80610c1d57506001600160e01b031982167fe90fb3f600000000000000000000000000000000000000000000000000000000145b92915050565b606060368054610c32906145c0565b80601f0160208091040260200160405190810160405280929190818152602001828054610c5e906145c0565b8015610cab5780601f10610c8057610100808354040283529160200191610cab565b820191906000526020600020905b815481529060010190602001808311610c8e57829003601f168201915b5050505050905090565b600080610cc0611d0b565b9050610ccd818585611d15565b5060019392505050565b6000610cf38383604051806020016040528060008152506110b4565b9392505050565b600080610d05611d0b565b9050610d12858285611e6d565b610d1d858585611eff565b506001949350505050565b600082815260c96020526040902060010154610d4381612127565b610d4d8383612138565b505050565b6000610cf3838360405180602001604052806000815250611a49565b6000610d7861215a565b905090565b610d85611d0b565b6001600160a01b0316816001600160a01b031614610e105760405162461bcd60e51b815260206004820152602f60248201527f416363657373436f6e74726f6c3a2063616e206f6e6c792072656e6f756e636560448201527f20726f6c657320666f722073656c66000000000000000000000000000000000060648201526084015b60405180910390fd5b610e1a82826121d7565b5050565b306001600160a01b037f0000000000000000000000000000000000000000000000000000000000000000161415610ebd5760405162461bcd60e51b815260206004820152602c60248201527f46756e6374696f6e206d7573742062652063616c6c6564207468726f7567682060448201527f64656c656761746563616c6c00000000000000000000000000000000000000006064820152608401610e07565b7f00000000000000000000000000000000000000000000000000000000000000006001600160a01b0316610f187f360894a13ba1a3210667c828492db98dca3e2076cc3735a920a3ca505d382bbc546001600160a01b031690565b6001600160a01b031614610f945760405162461bcd60e51b815260206004820152602c60248201527f46756e6374696f6e206d7573742062652063616c6c6564207468726f7567682060448201527f6163746976652070726f787900000000000000000000000000000000000000006064820152608401610e07565b610f9d816121f9565b60408051600080825260208201909252610fb991839190612223565b50565b600080610fc7611d0b565b9050610ccd818585610fff85896001600160a01b03918216600090815260346020908152604080832093909416825291909152205490565b611009919061441f565b611d15565b600043821061105f5760405162461bcd60e51b815260206004820152601f60248201527f4552433230566f7465733a20626c6f636b206e6f7420796574206d696e6564006044820152606401610e07565b6001600160a01b03831660009081526101c760205260409020610cf390836123d2565b7f65d7a28e3265b37a6474929f336521b332c1681b933f6cb9f3376673440d862a6110ac81612127565b610fb961248f565b60006110c084846115b9565b506110d46110cc611d0b565b8585856124e8565b610ccd5760405162461bcd60e51b815260206004820152601e60248201527f455243313336333a205f636865636b416e6443616c6c5472616e7366657200006044820152606401610e07565b306001600160a01b037f00000000000000000000000000000000000000000000000000000000000000001614156111bf5760405162461bcd60e51b815260206004820152602c60248201527f46756e6374696f6e206d7573742062652063616c6c6564207468726f7567682060448201527f64656c656761746563616c6c00000000000000000000000000000000000000006064820152608401610e07565b7f00000000000000000000000000000000000000000000000000000000000000006001600160a01b031661121a7f360894a13ba1a3210667c828492db98dca3e2076cc3735a920a3ca505d382bbc546001600160a01b031690565b6001600160a01b0316146112965760405162461bcd60e51b815260206004820152602c60248201527f46756e6374696f6e206d7573742062652063616c6c6564207468726f7567682060448201527f6163746976652070726f787900000000000000000000000000000000000000006064820152608401610e07565b61129f826121f9565b610e1a82826001612223565b6000306001600160a01b037f0000000000000000000000000000000000000000000000000000000000000000161461134b5760405162461bcd60e51b815260206004820152603860248201527f555550535570677261646561626c653a206d757374206e6f742062652063616c60448201527f6c6564207468726f7567682064656c656761746563616c6c00000000000000006064820152608401610e07565b507f360894a13ba1a3210667c828492db98dca3e2076cc3735a920a3ca505d382bbc90565b610fb961137b611d0b565b826125c5565b6001600160a01b03811660009081526101c76020526040812054610c1d9061264d565b6001600160a01b03811660009081526101936020526040812054610c1d565b7f65d7a28e3265b37a6474929f336521b332c1681b933f6cb9f3376673440d862a6113ed81612127565b610fb96126cd565b60004382106114465760405162461bcd60e51b815260206004820152601f60248201527f4552433230566f7465733a20626c6f636b206e6f7420796574206d696e6564006044820152606401610e07565b610c1d6101c8836123d2565b600082815260fb60205260408120610cf3908361270c565b606060378054610c32906145c0565b6001600160a01b03811660009081526101c7602052604081205480156114ef576001600160a01b03831660009081526101c7602052604090206114bd600183614566565b815481106114cd576114cd614637565b60009182526020909120015464010000000090046001600160e01b03166114f2565b60005b6001600160e01b03169392505050565b60008061150d611d0b565b6001600160a01b03818116600090815260346020908152604080832093891683529290522054909150838110156115ac5760405162461bcd60e51b815260206004820152602560248201527f45524332303a2064656372656173656420616c6c6f77616e63652062656c6f7760448201527f207a65726f0000000000000000000000000000000000000000000000000000006064820152608401610e07565b610d1d8286868403611d15565b6000806115c4611d0b565b9050610ccd818585611eff565b60006115de858585610cfa565b506115eb858585856124e8565b610d1d5760405162461bcd60e51b815260206004820152601e60248201527f455243313336333a205f636865636b416e6443616c6c5472616e7366657200006044820152606401610e07565b949350505050565b8342111561168f5760405162461bcd60e51b815260206004820152601d60248201527f4552433230566f7465733a207369676e617475726520657870697265640000006044820152606401610e07565b604080517fe48329057bfd03d55e49b547132e39cffd9c1820ad7b9d4c5307691425d15adf60208201526001600160a01b038816918101919091526060810186905260808101859052600090611709906117019060a00160405160208183030381529060405280519060200120612718565b858585612781565b9050611714816127a9565b86146117625760405162461bcd60e51b815260206004820152601960248201527f4552433230566f7465733a20696e76616c6964206e6f6e6365000000000000006044820152606401610e07565b61176c81886125c5565b50505050505050565b600054610100900460ff16158080156117955750600054600160ff909116105b806117af5750303b1580156117af575060005460ff166001145b6118215760405162461bcd60e51b815260206004820152602e60248201527f496e697469616c697a61626c653a20636f6e747261637420697320616c72656160448201527f647920696e697469616c697a65640000000000000000000000000000000000006064820152608401610e07565b6000805460ff191660011790558015611844576000805461ff0019166101001790555b6001600160a01b03821661189a5760405162461bcd60e51b815260206004820152601860248201527f746f6b656e734f776e6572206973206d616e6461746f727900000000000000006044820152606401610e07565b6118de604051806040016040528060058152602001644d4554415360d81b815250604051806040016040528060058152602001644d4554415360d81b8152506127d2565b6118e6612847565b6118ee612847565b6118f6612847565b6118fe6128b4565b611924604051806040016040528060058152602001644d4554415360d81b815250612927565b61192c612847565b6119346129d1565b61193c6129d1565b611947600083612138565b6119717f77d72916e966418e6dc58a19999ae9934bef3f749f1547cde0a86e809f19c89b83612138565b61199b7f3fb90a982568460bdf5505b984928e3c942db3525e60c25e39051cacec08b60f83612138565b6119c57f65d7a28e3265b37a6474929f336521b332c1681b933f6cb9f3376673440d862a83612138565b6119e9826119d56012600a61449c565b6119e49064012a05f200614547565b612a44565b8015610e1a576000805461ff0019169055604051600181527f7f26b83ff96e1f2b6a682f133852f6798a09c465da95921460cefb38474024989060200160405180910390a15050565b600081815260fb60205260408120610c1d90612a4e565b6000611a558484610cb5565b50611a61848484612a58565b610ccd5760405162461bcd60e51b815260206004820152601d60248201527f455243313336333a205f636865636b416e6443616c6c417070726f76650000006044820152606401610e07565b83421115611afd5760405162461bcd60e51b815260206004820152601d60248201527f45524332305065726d69743a206578706972656420646561646c696e650000006044820152606401610e07565b60007f6e71edae12b1b97f4d1f60370fef10105fa2faae0126114a169c64845d6126c9888888611b2c8c6127a9565b6040805160208101969096526001600160a01b0394851690860152929091166060840152608083015260a082015260c0810186905260e0016040516020818303038152906040528051906020012090506000611b8782612718565b90506000611b9782878787612781565b9050896001600160a01b0316816001600160a01b031614611bfa5760405162461bcd60e51b815260206004820152601e60248201527f45524332305065726d69743a20696e76616c6964207369676e617475726500006044820152606401610e07565b611c058a8a8a611d15565b50505050505050505050565b600082815260c96020526040902060010154611c2c81612127565b610d4d83836121d7565b6000611637848484604051806020016040528060008152506115d1565b7f3fb90a982568460bdf5505b984928e3c942db3525e60c25e39051cacec08b60f611c7d81612127565b610e1a82612b32565b60408051808201909152600080825260208201526001600160a01b03831660009081526101c760205260409020805463ffffffff8416908110611ccb57611ccb614637565b60009182526020918290206040805180820190915291015463ffffffff8116825264010000000090046001600160e01b0316918101919091529392505050565b6000610d78612b92565b6001600160a01b038316611d905760405162461bcd60e51b8152602060048201526024808201527f45524332303a20617070726f76652066726f6d20746865207a65726f2061646460448201527f72657373000000000000000000000000000000000000000000000000000000006064820152608401610e07565b6001600160a01b038216611e0c5760405162461bcd60e51b815260206004820152602260248201527f45524332303a20617070726f766520746f20746865207a65726f20616464726560448201527f73730000000000000000000000000000000000000000000000000000000000006064820152608401610e07565b6001600160a01b0383811660008181526034602090815260408083209487168084529482529182902085905590518481527f8c5be1e5ebec7d5bd14f71427d1e84f3dd0314c0f7b2291e5b200ac8c7c3b925910160405180910390a3505050565b6001600160a01b038381166000908152603460209081526040808320938616835292905220546000198114611ef95781811015611eec5760405162461bcd60e51b815260206004820152601d60248201527f45524332303a20696e73756666696369656e7420616c6c6f77616e63650000006044820152606401610e07565b611ef98484848403611d15565b50505050565b6001600160a01b038316611f7b5760405162461bcd60e51b815260206004820152602560248201527f45524332303a207472616e736665722066726f6d20746865207a65726f20616460448201527f64726573730000000000000000000000000000000000000000000000000000006064820152608401610e07565b6001600160a01b038216611ff75760405162461bcd60e51b815260206004820152602360248201527f45524332303a207472616e7366657220746f20746865207a65726f206164647260448201527f65737300000000000000000000000000000000000000000000000000000000006064820152608401610e07565b612002838383612bd9565b6001600160a01b038316600090815260336020526040902054818110156120915760405162461bcd60e51b815260206004820152602660248201527f45524332303a207472616e7366657220616d6f756e742065786365656473206260448201527f616c616e636500000000000000000000000000000000000000000000000000006064820152608401610e07565b6001600160a01b038085166000908152603360205260408082208585039055918516815290812080548492906120c890849061441f565b92505081905550826001600160a01b0316846001600160a01b03167fddf252ad1be2c89b69c2b068fc378daa952ba7f163c4a11628f55a4df523b3ef8460405161211491815260200190565b60405180910390a3611ef9848484612be1565b610fb981612133611d0b565b612bec565b6121428282612c6c565b600082815260fb60205260409020610d4d9082612d0f565b6000610d787f8b73c3c69bb8fe3d512ecc4cf759cc79239f7b179b0ffacaa9a75d522b39400f61218a61015f5490565b610160546040805160208101859052908101839052606081018290524660808201523060a082015260009060c0016040516020818303038152906040528051906020012090509392505050565b6121e18282612d24565b600082815260fb60205260409020610d4d9082612dc5565b7f77d72916e966418e6dc58a19999ae9934bef3f749f1547cde0a86e809f19c89b610e1a81612127565b7f4910fdfa16fed3260ed0e7147f7cc6da11a60208b5b9406d12a635614ffd91435460ff161561225657610d4d83612dda565b826001600160a01b03166352d1902d6040518163ffffffff1660e01b815260040160206040518083038186803b15801561228f57600080fd5b505afa9250505080156122bf575060408051601f3d908101601f191682019092526122bc91810190614247565b60015b6123315760405162461bcd60e51b815260206004820152602e60248201527f45524331393637557067726164653a206e657720696d706c656d656e7461746960448201527f6f6e206973206e6f7420555550530000000000000000000000000000000000006064820152608401610e07565b7f360894a13ba1a3210667c828492db98dca3e2076cc3735a920a3ca505d382bbc81146123c65760405162461bcd60e51b815260206004820152602960248201527f45524331393637557067726164653a20756e737570706f727465642070726f7860448201527f6961626c655555494400000000000000000000000000000000000000000000006064820152608401610e07565b50610d4d838383612ea5565b8154600090815b818110156124365760006123ed8284612eca565b90508486828154811061240257612402614637565b60009182526020909120015463ffffffff16111561242257809250612430565b61242d81600161441f565b91505b506123d9565b811561247a5784612448600184614566565b8154811061245857612458614637565b60009182526020909120015464010000000090046001600160e01b031661247d565b60005b6001600160e01b031695945050505050565b612497612ee5565b61012d805460ff191690557f5db9ee0a495bf2e6ff9c91a7834c1ba4fdd244a5e8aa4e537bd38aeae4b073aa6124cb611d0b565b6040516001600160a01b03909116815260200160405180910390a1565b60006001600160a01b0384163b61250157506000611637565b6000846001600160a01b03166388a7ca5c61251a611d0b565b8887876040518563ffffffff1660e01b815260040161253c94939291906143a8565b602060405180830381600087803b15801561255657600080fd5b505af115801561256a573d6000803e3d6000fd5b505050506040513d601f19601f8201168201806040525081019061258e91906142c2565b6001600160e01b0319167f88a7ca5c0000000000000000000000000000000000000000000000000000000014915050949350505050565b6001600160a01b0382811660008181526101c660208181526040808420805460338452828620549490935287871673ffffffffffffffffffffffffffffffffffffffff198416811790915590519190951694919391928592917f3134e8a2e6d97e929a7e54011ea5485d7d196dd5f0ba4d4ef95803e8e3fc257f9190a4611ef9828483612f38565b600063ffffffff8211156126c95760405162461bcd60e51b815260206004820152602660248201527f53616665436173743a2076616c756520646f65736e27742066697420696e203360448201527f32206269747300000000000000000000000000000000000000000000000000006064820152608401610e07565b5090565b6126d5613077565b61012d805460ff191660011790557f62e78cea01bee320cd4e420270b5ea74000d11b0c9f74754ebdbfc544b05a2586124cb611d0b565b6000610cf383836130cb565b6000610c1d61272561215a565b836040517f19010000000000000000000000000000000000000000000000000000000000006020820152602281018390526042810182905260009060620160405160208183030381529060405280519060200120905092915050565b6000806000612792878787876130f5565b9150915061279f816131e2565b5095945050505050565b6001600160a01b0381166000908152610193602052604090208054600181018255905b50919050565b600054610100900460ff1661283d5760405162461bcd60e51b815260206004820152602b60248201527f496e697469616c697a61626c653a20636f6e7472616374206973206e6f74206960448201526a6e697469616c697a696e6760a81b6064820152608401610e07565b610e1a82826133d3565b600054610100900460ff166128b25760405162461bcd60e51b815260206004820152602b60248201527f496e697469616c697a61626c653a20636f6e7472616374206973206e6f74206960448201526a6e697469616c697a696e6760a81b6064820152608401610e07565b565b600054610100900460ff1661291f5760405162461bcd60e51b815260206004820152602b60248201527f496e697469616c697a61626c653a20636f6e7472616374206973206e6f74206960448201526a6e697469616c697a696e6760a81b6064820152608401610e07565b6128b2613465565b600054610100900460ff166129925760405162461bcd60e51b815260206004820152602b60248201527f496e697469616c697a61626c653a20636f6e7472616374206973206e6f74206960448201526a6e697469616c697a696e6760a81b6064820152608401610e07565b610fb9816040518060400160405280600181526020017f31000000000000000000000000000000000000000000000000000000000000008152506134dd565b600054610100900460ff16612a3c5760405162461bcd60e51b815260206004820152602b60248201527f496e697469616c697a61626c653a20636f6e7472616374206973206e6f74206960448201526a6e697469616c697a696e6760a81b6064820152608401610e07565b6128b2612847565b610e1a8282613564565b6000610c1d825490565b60006001600160a01b0384163b612a7157506000610cf3565b6000846001600160a01b0316637b04a2d0612a8a611d0b565b86866040518463ffffffff1660e01b8152600401612aaa939291906143e4565b602060405180830381600087803b158015612ac457600080fd5b505af1158015612ad8573d6000803e3d6000fd5b505050506040513d601f19601f82011682018060405250810190612afc91906142c2565b6001600160e01b0319167f7b04a2d000000000000000000000000000000000000000000000000000000000149150509392505050565b6101f880546001600160a01b0383811673ffffffffffffffffffffffffffffffffffffffff19831681179093556040519116919082907f06dff7401eb7fb04d241246ade7f817c7ad512b1bed61c18aedd9bc51eec047590600090a35050565b6101f8546000906001600160a01b0316331415612bd457507fffffffffffffffffffffffffffffffffffffffffffffffffffffffffffffffec36013560601c90565b503390565b610d4d613077565b610d4d8383836135fc565b600082815260c9602090815260408083206001600160a01b038516845290915290205460ff16610e1a57612c2a816001600160a01b0316601461362f565b612c3583602061362f565b604051602001612c46929190614327565b60408051601f198184030181529082905262461bcd60e51b8252610e079160040161440c565b600082815260c9602090815260408083206001600160a01b038516845290915290205460ff16610e1a57600082815260c9602090815260408083206001600160a01b03851684529091529020805460ff19166001179055612ccb611d0b565b6001600160a01b0316816001600160a01b0316837f2f8788117e7eff1d82e926ec794901d17c78024a50270940304540a733656f0d60405160405180910390a45050565b6000610cf3836001600160a01b038416613858565b600082815260c9602090815260408083206001600160a01b038516845290915290205460ff1615610e1a57600082815260c9602090815260408083206001600160a01b03851684529091529020805460ff19169055612d81611d0b565b6001600160a01b0316816001600160a01b0316837ff6391f5c32d9c69d2a47ea670b442974b53935d1edc7fd64eb21e047a839171b60405160405180910390a45050565b6000610cf3836001600160a01b0384166138a7565b6001600160a01b0381163b612e575760405162461bcd60e51b815260206004820152602d60248201527f455243313936373a206e657720696d706c656d656e746174696f6e206973206e60448201527f6f74206120636f6e7472616374000000000000000000000000000000000000006064820152608401610e07565b7f360894a13ba1a3210667c828492db98dca3e2076cc3735a920a3ca505d382bbc805473ffffffffffffffffffffffffffffffffffffffff19166001600160a01b0392909216919091179055565b612eae8361399a565b600082511180612ebb5750805b15610d4d57611ef983836139da565b6000612ed96002848418614437565b610cf39084841661441f565b61012d5460ff166128b25760405162461bcd60e51b815260206004820152601460248201527f5061757361626c653a206e6f74207061757365640000000000000000000000006044820152606401610e07565b816001600160a01b0316836001600160a01b031614158015612f5a5750600081115b15610d4d576001600160a01b03831615612fe9576001600160a01b03831660009081526101c7602052604081208190612f9690613ae585613af1565b91509150846001600160a01b03167fdec2bacdd2f05b59de34da9b523dff8be42e5e38e818c82fdb0bae774387a7248383604051612fde929190918252602082015260400190565b60405180910390a250505b6001600160a01b03821615610d4d576001600160a01b03821660009081526101c760205260408120819061302090613c6a85613af1565b91509150836001600160a01b03167fdec2bacdd2f05b59de34da9b523dff8be42e5e38e818c82fdb0bae774387a7248383604051613068929190918252602082015260400190565b60405180910390a25050505050565b61012d5460ff16156128b25760405162461bcd60e51b815260206004820152601060248201527f5061757361626c653a20706175736564000000000000000000000000000000006044820152606401610e07565b60008260000182815481106130e2576130e2614637565b9060005260206000200154905092915050565b6000807f7fffffffffffffffffffffffffffffff5d576e7357a4501ddfe92f46681b20a083111561312c57506000905060036131d9565b8460ff16601b1415801561314457508460ff16601c14155b1561315557506000905060046131d9565b6040805160008082526020820180845289905260ff881692820192909252606081018690526080810185905260019060a0016020604051602081039080840390855afa1580156131a9573d6000803e3d6000fd5b5050604051601f1901519150506001600160a01b0381166131d2576000600192509250506131d9565b9150600090505b94509492505050565b60008160048111156131f6576131f661460b565b14156131ff5750565b60018160048111156132135761321361460b565b14156132615760405162461bcd60e51b815260206004820152601860248201527f45434453413a20696e76616c6964207369676e617475726500000000000000006044820152606401610e07565b60028160048111156132755761327561460b565b14156132c35760405162461bcd60e51b815260206004820152601f60248201527f45434453413a20696e76616c6964207369676e6174757265206c656e677468006044820152606401610e07565b60038160048111156132d7576132d761460b565b141561334b5760405162461bcd60e51b815260206004820152602260248201527f45434453413a20696e76616c6964207369676e6174757265202773272076616c60448201527f75650000000000000000000000000000000000000000000000000000000000006064820152608401610e07565b600481600481111561335f5761335f61460b565b1415610fb95760405162461bcd60e51b815260206004820152602260248201527f45434453413a20696e76616c6964207369676e6174757265202776272076616c60448201527f75650000000000000000000000000000000000000000000000000000000000006064820152608401610e07565b600054610100900460ff1661343e5760405162461bcd60e51b815260206004820152602b60248201527f496e697469616c697a61626c653a20636f6e7472616374206973206e6f74206960448201526a6e697469616c697a696e6760a81b6064820152608401610e07565b8151613451906036906020850190613e21565b508051610d4d906037906020840190613e21565b600054610100900460ff166134d05760405162461bcd60e51b815260206004820152602b60248201527f496e697469616c697a61626c653a20636f6e7472616374206973206e6f74206960448201526a6e697469616c697a696e6760a81b6064820152608401610e07565b61012d805460ff19169055565b600054610100900460ff166135485760405162461bcd60e51b815260206004820152602b60248201527f496e697469616c697a61626c653a20636f6e7472616374206973206e6f74206960448201526a6e697469616c697a696e6760a81b6064820152608401610e07565b81516020928301208151919092012061015f9190915561016055565b61356e8282613c76565b6035546001600160e01b0310156135ed5760405162461bcd60e51b815260206004820152603060248201527f4552433230566f7465733a20746f74616c20737570706c79207269736b73206f60448201527f766572666c6f77696e6720766f746573000000000000000000000000000000006064820152608401610e07565b611ef96101c8613c6a83613af1565b6001600160a01b0383811660009081526101c66020526040808220548584168352912054610d4d92918216911683612f38565b6060600061363e836002614547565b61364990600261441f565b67ffffffffffffffff8111156136615761366161464d565b6040519080825280601f01601f19166020018201604052801561368b576020820181803683370190505b5090507f3000000000000000000000000000000000000000000000000000000000000000816000815181106136c2576136c2614637565b60200101907effffffffffffffffffffffffffffffffffffffffffffffffffffffffffffff1916908160001a9053507f78000000000000000000000000000000000000000000000000000000000000008160018151811061372557613725614637565b60200101907effffffffffffffffffffffffffffffffffffffffffffffffffffffffffffff1916908160001a9053506000613761846002614547565b61376c90600161441f565b90505b6001811115613809577f303132333435363738396162636465660000000000000000000000000000000085600f16601081106137ad576137ad614637565b1a60f81b8282815181106137c3576137c3614637565b60200101907effffffffffffffffffffffffffffffffffffffffffffffffffffffffffffff1916908160001a90535060049490941c93613802816145a9565b905061376f565b508315610cf35760405162461bcd60e51b815260206004820181905260248201527f537472696e67733a20686578206c656e67746820696e73756666696369656e746044820152606401610e07565b600081815260018301602052604081205461389f57508154600181810184556000848152602080822090930184905584548482528286019093526040902091909155610c1d565b506000610c1d565b600081815260018301602052604081205480156139905760006138cb600183614566565b85549091506000906138df90600190614566565b90508181146139445760008660000182815481106138ff576138ff614637565b906000526020600020015490508087600001848154811061392257613922614637565b6000918252602080832090910192909255918252600188019052604090208390555b855486908061395557613955614621565b600190038181906000526020600020016000905590558560010160008681526020019081526020016000206000905560019350505050610c1d565b6000915050610c1d565b6139a381612dda565b6040516001600160a01b038216907fbc7cd75a20ee27fd9adebab32041f755214dbc6bffa90cc0225b39da2e5c2d3b90600090a250565b60606001600160a01b0383163b613a595760405162461bcd60e51b815260206004820152602660248201527f416464726573733a2064656c65676174652063616c6c20746f206e6f6e2d636f60448201527f6e747261637400000000000000000000000000000000000000000000000000006064820152608401610e07565b600080846001600160a01b031684604051613a74919061430b565b600060405180830381855af49150503d8060008114613aaf576040519150601f19603f3d011682016040523d82523d6000602084013e613ab4565b606091505b5091509150613adc828260405180606001604052806027815260200161467a60279139613d69565b95945050505050565b6000610cf38284614566565b825460009081908015613b3c5785613b0a600183614566565b81548110613b1a57613b1a614637565b60009182526020909120015464010000000090046001600160e01b0316613b3f565b60005b6001600160e01b03169250613b5883858763ffffffff16565b9150600081118015613b9657504386613b72600184614566565b81548110613b8257613b82614637565b60009182526020909120015463ffffffff16145b15613bf657613ba482613da2565b86613bb0600184614566565b81548110613bc057613bc0614637565b9060005260206000200160000160046101000a8154816001600160e01b0302191690836001600160e01b03160217905550613c61565b856040518060400160405280613c0b4361264d565b63ffffffff168152602001613c1f85613da2565b6001600160e01b0390811690915282546001810184556000938452602093849020835194909301519091166401000000000263ffffffff909316929092179101555b50935093915050565b6000610cf3828461441f565b6001600160a01b038216613ccc5760405162461bcd60e51b815260206004820152601f60248201527f45524332303a206d696e7420746f20746865207a65726f2061646472657373006044820152606401610e07565b613cd860008383612bd9565b8060356000828254613cea919061441f565b90915550506001600160a01b03821660009081526033602052604081208054839290613d1790849061441f565b90915550506040518181526001600160a01b038316906000907fddf252ad1be2c89b69c2b068fc378daa952ba7f163c4a11628f55a4df523b3ef9060200160405180910390a3610e1a60008383612be1565b60608315613d78575081610cf3565b825115613d885782518084602001fd5b8160405162461bcd60e51b8152600401610e07919061440c565b60006001600160e01b038211156126c95760405162461bcd60e51b815260206004820152602760248201527f53616665436173743a2076616c756520646f65736e27742066697420696e203260448201527f32342062697473000000000000000000000000000000000000000000000000006064820152608401610e07565b828054613e2d906145c0565b90600052602060002090601f016020900481019282613e4f5760008555613e95565b82601f10613e6857805160ff1916838001178555613e95565b82800160010185558215613e95579182015b82811115613e95578251825591602001919060010190613e7a565b506126c99291505b808211156126c95760008155600101613e9d565b80356001600160a01b0381168114613ec857600080fd5b919050565b600082601f830112613ede57600080fd5b813567ffffffffffffffff80821115613ef957613ef961464d565b604051601f8301601f19908116603f01168101908282118183101715613f2157613f2161464d565b81604052838152866020858801011115613f3a57600080fd5b836020870160208301376000602085830101528094505050505092915050565b803560ff81168114613ec857600080fd5b600060208284031215613f7d57600080fd5b610cf382613eb1565b60008060408385031215613f9957600080fd5b613fa283613eb1565b9150613fb060208401613eb1565b90509250929050565b600080600060608486031215613fce57600080fd5b613fd784613eb1565b9250613fe560208501613eb1565b9150604084013590509250925092565b6000806000806080858703121561400b57600080fd5b61401485613eb1565b935061402260208601613eb1565b925060408501359150606085013567ffffffffffffffff81111561404557600080fd5b61405187828801613ecd565b91505092959194509250565b600080600080600080600060e0888a03121561407857600080fd5b61408188613eb1565b965061408f60208901613eb1565b955060408801359450606088013593506140ab60808901613f5a565b925060a0880135915060c0880135905092959891949750929550565b600080604083850312156140da57600080fd5b6140e383613eb1565b9150602083013567ffffffffffffffff8111156140ff57600080fd5b61410b85828601613ecd565b9150509250929050565b6000806040838503121561412857600080fd5b61413183613eb1565b946020939093013593505050565b60008060006060848603121561415457600080fd5b61415d84613eb1565b925060208401359150604084013567ffffffffffffffff81111561418057600080fd5b61418c86828701613ecd565b9150509250925092565b60008060008060008060c087890312156141af57600080fd5b6141b887613eb1565b955060208701359450604087013593506141d460608801613f5a565b92506080870135915060a087013590509295509295509295565b6000806040838503121561420157600080fd5b61420a83613eb1565b9150602083013563ffffffff8116811461422357600080fd5b809150509250929050565b60006020828403121561424057600080fd5b5035919050565b60006020828403121561425957600080fd5b5051919050565b6000806040838503121561427357600080fd5b82359150613fb060208401613eb1565b6000806040838503121561429657600080fd5b50508035926020909101359150565b6000602082840312156142b757600080fd5b8135610cf381614663565b6000602082840312156142d457600080fd5b8151610cf381614663565b600081518084526142f781602086016020860161457d565b601f01601f19169290920160200192915050565b6000825161431d81846020870161457d565b9190910192915050565b7f416363657373436f6e74726f6c3a206163636f756e742000000000000000000081526000835161435f81601785016020880161457d565b7f206973206d697373696e6720726f6c6520000000000000000000000000000000601791840191820152835161439c81602884016020880161457d565b01602801949350505050565b60006001600160a01b038087168352808616602084015250836040830152608060608301526143da60808301846142df565b9695505050505050565b6001600160a01b0384168152826020820152606060408201526000613adc60608301846142df565b602081526000610cf360208301846142df565b60008219821115614432576144326145f5565b500190565b60008261445457634e487b7160e01b600052601260045260246000fd5b500490565b600181815b8085111561449457816000190482111561447a5761447a6145f5565b8085161561448757918102915b93841c939080029061445e565b509250929050565b6000610cf360ff8416836000826144b557506001610c1d565b816144c257506000610c1d565b81600181146144d857600281146144e2576144fe565b6001915050610c1d565b60ff8411156144f3576144f36145f5565b50506001821b610c1d565b5060208310610133831016604e8410600b8410161715614521575081810a610c1d565b61452b8383614459565b806000190482111561453f5761453f6145f5565b029392505050565b6000816000190483118215151615614561576145616145f5565b500290565b600082821015614578576145786145f5565b500390565b60005b83811015614598578181015183820152602001614580565b83811115611ef95750506000910152565b6000816145b8576145b86145f5565b506000190190565b600181811c908216806145d457607f821691505b602082108114156127cc57634e487b7160e01b600052602260045260246000fd5b634e487b7160e01b600052601160045260246000fd5b634e487b7160e01b600052602160045260246000fd5b634e487b7160e01b600052603160045260246000fd5b634e487b7160e01b600052603260045260246000fd5b634e487b7160e01b600052604160045260246000fd5b6001600160e01b031981168114610fb957600080fdfe416464726573733a206c6f772d6c6576656c2064656c65676174652063616c6c206661696c6564a2646970667358221220293b006bffc536e551f9f9e31a5320ef5f8cce0f5de093ef2d46f3c8883590b064736f6c63430008070033",
  "devdoc": {
    "custom:security-contact": "it@theblockchainxdev.com",
    "details": "This is an ERC20 contract implementing many features: ERC165, ERC1363, ERC2771, ERC20Votes, ERC20Permit, ERC1967, ERC1822, Pausable and AccessControl.",
    "kind": "dev",
    "methods": {
      "DOMAIN_SEPARATOR()": {
        "details": "See {IERC20Permit-DOMAIN_SEPARATOR}."
      },
      "allowance(address,address)": {
        "details": "See {IERC20-allowance}."
      },
      "approve(address,uint256)": {
        "details": "See {IERC20-approve}. NOTE: If `amount` is the maximum `uint256`, the allowance is not updated on `transferFrom`. This is semantically equivalent to an infinite approval. Requirements: - `spender` cannot be the zero address."
      },
      "approveAndCall(address,uint256)": {
        "details": "Approve spender to transfer tokens and then execute a callback on `spender`.",
        "params": {
          "amount": "The amount allowed to be transferred",
          "spender": "The address allowed to transfer to"
        },
        "returns": {
          "_0": "A boolean that indicates if the operation was successful."
        }
      },
      "approveAndCall(address,uint256,bytes)": {
        "details": "Approve spender to transfer tokens and then execute a callback on `spender`.",
        "params": {
          "amount": "The amount allowed to be transferred.",
          "data": "Additional data with no specified format.",
          "spender": "The address allowed to transfer to."
        },
        "returns": {
          "_0": "A boolean that indicates if the operation was successful."
        }
      },
      "balanceOf(address)": {
        "details": "See {IERC20-balanceOf}."
      },
      "checkpoints(address,uint32)": {
        "details": "Get the `pos`-th checkpoint for `account`."
      },
      "constructor": {
        "custom:oz-upgrades-unsafe-allow": "constructor"
      },
      "decimals()": {
        "details": "Returns the number of decimals used to get its user representation. For example, if `decimals` equals `2`, a balance of `505` tokens should be displayed to a user as `5.05` (`505 / 10 ** 2`). Tokens usually opt for a value of 18, imitating the relationship between Ether and Wei. This is the value {ERC20} uses, unless this function is overridden; NOTE: This information is only used for _display_ purposes: it in no way affects any of the arithmetic of the contract, including {IERC20-balanceOf} and {IERC20-transfer}."
      },
      "decreaseAllowance(address,uint256)": {
        "details": "Atomically decreases the allowance granted to `spender` by the caller. This is an alternative to {approve} that can be used as a mitigation for problems described in {IERC20-approve}. Emits an {Approval} event indicating the updated allowance. Requirements: - `spender` cannot be the zero address. - `spender` must have allowance for the caller of at least `subtractedValue`."
      },
      "delegate(address)": {
        "details": "Delegate votes from the sender to `delegatee`."
      },
      "delegateBySig(address,uint256,uint256,uint8,bytes32,bytes32)": {
        "details": "Delegates votes from signer to `delegatee`"
      },
      "delegates(address)": {
        "details": "Get the address `account` is currently delegating to."
      },
      "getChainId()": {
        "details": "get current block chain identifier",
        "returns": {
          "_0": "number representing current block chain identifier"
        }
      },
      "getPastTotalSupply(uint256)": {
        "details": "Retrieve the `totalSupply` at the end of `blockNumber`. Note, this value is the sum of all balances. It is but NOT the sum of all the delegated votes! Requirements: - `blockNumber` must have been already mined"
      },
      "getPastVotes(address,uint256)": {
        "details": "Retrieve the number of votes for `account` at the end of `blockNumber`. Requirements: - `blockNumber` must have been already mined"
      },
      "getRoleAdmin(bytes32)": {
        "details": "Returns the admin role that controls `role`. See {grantRole} and {revokeRole}. To change a role's admin, use {_setRoleAdmin}."
      },
      "getRoleMember(bytes32,uint256)": {
        "details": "Returns one of the accounts that have `role`. `index` must be a value between 0 and {getRoleMemberCount}, non-inclusive. Role bearers are not sorted in any particular way, and their ordering may change at any point. WARNING: When using {getRoleMember} and {getRoleMemberCount}, make sure you perform all queries on the same block. See the following https://forum.openzeppelin.com/t/iterating-over-elements-on-enumerableset-in-openzeppelin-contracts/2296[forum post] for more information."
      },
      "getRoleMemberCount(bytes32)": {
        "details": "Returns the number of accounts that have `role`. Can be used together with {getRoleMember} to enumerate all bearers of a role."
      },
      "getVotes(address)": {
        "details": "Gets the current votes balance for `account`"
      },
      "grantRole(bytes32,address)": {
        "details": "Grants `role` to `account`. If `account` had not been already granted `role`, emits a {RoleGranted} event. Requirements: - the caller must have ``role``'s admin role. May emit a {RoleGranted} event."
      },
      "hasRole(bytes32,address)": {
        "details": "Returns `true` if `account` has been granted `role`."
      },
      "increaseAllowance(address,uint256)": {
        "details": "Atomically increases the allowance granted to `spender` by the caller. This is an alternative to {approve} that can be used as a mitigation for problems described in {IERC20-approve}. Emits an {Approval} event indicating the updated allowance. Requirements: - `spender` cannot be the zero address."
      },
      "initialize(address)": {
        "details": "Initialization of the contract required by the `proxy pattern` replacing the `constructor`",
        "params": {
          "tokensOwner": "Admin of the contract & recipient address of the minted tokens"
        }
      },
      "isTrustedForwarder(address)": {
        "details": "ERC2771 implementation",
        "params": {
          "forwarder": "address to check"
        },
        "returns": {
          "_0": "true if it's the trusted forwarder"
        }
      },
      "name()": {
        "details": "Returns the name of the token."
      },
      "nonces(address)": {
        "details": "See {IERC20Permit-nonces}."
      },
      "numCheckpoints(address)": {
        "details": "Get number of checkpoints for `account`."
      },
      "pause()": {
        "details": "Only owner can pause"
      },
      "paused()": {
        "details": "Returns true if the contract is paused, and false otherwise."
      },
      "permit(address,address,uint256,uint256,uint8,bytes32,bytes32)": {
        "details": "See {IERC20Permit-permit}."
      },
      "proxiableUUID()": {
        "details": "Implementation of the ERC1822 {proxiableUUID} function. This returns the storage slot used by the implementation. It is used to validate that the this implementation remains valid after an upgrade. IMPORTANT: A proxy pointing at a proxiable contract should not be considered proxiable itself, because this risks bricking a proxy that upgrades to it, by delegating to itself until out of gas. Thus it is critical that this function revert if invoked through a proxy. This is guaranteed by the `notDelegated` modifier."
      },
      "renounceRole(bytes32,address)": {
        "details": "Revokes `role` from the calling account. Roles are often managed via {grantRole} and {revokeRole}: this function's purpose is to provide a mechanism for accounts to lose their privileges if they are compromised (such as when a trusted device is misplaced). If the calling account had been revoked `role`, emits a {RoleRevoked} event. Requirements: - the caller must be `account`. May emit a {RoleRevoked} event."
      },
      "revokeRole(bytes32,address)": {
        "details": "Revokes `role` from `account`. If `account` had been granted `role`, emits a {RoleRevoked} event. Requirements: - the caller must have ``role``'s admin role. May emit a {RoleRevoked} event."
      },
      "setTrustedForwarder(address)": {
        "details": "should be declared here because we need to protect calls with onlyRole(FORWARDER_ROLE)",
        "params": {
          "forwarder": "New trusted forwarder's address"
        }
      },
      "supportsInterface(bytes4)": {
        "details": "ERC165 implementation",
        "params": {
          "interfaceId": "interface's id"
        },
        "returns": {
          "_0": "true if the specified interface is implemented by the contract"
        }
      },
      "symbol()": {
        "details": "Returns the symbol of the token, usually a shorter version of the name."
      },
      "totalSupply()": {
        "details": "See {IERC20-totalSupply}."
      },
      "transfer(address,uint256)": {
        "details": "See {IERC20-transfer}. Requirements: - `to` cannot be the zero address. - the caller must have a balance of at least `amount`."
      },
      "transferAndCall(address,uint256)": {
        "details": "Transfer tokens to a specified address and then execute a callback on `to`.",
        "params": {
          "amount": "The amount to be transferred.",
          "to": "The address to transfer to."
        },
        "returns": {
          "_0": "A boolean that indicates if the operation was successful."
        }
      },
      "transferAndCall(address,uint256,bytes)": {
        "details": "Transfer tokens to a specified address and then execute a callback on `to`.",
        "params": {
          "amount": "The amount to be transferred",
          "data": "Additional data with no specified format",
          "to": "The address to transfer to"
        },
        "returns": {
          "_0": "A boolean that indicates if the operation was successful."
        }
      },
      "transferFrom(address,address,uint256)": {
        "details": "See {IERC20-transferFrom}. Emits an {Approval} event indicating the updated allowance. This is not required by the EIP. See the note at the beginning of {ERC20}. NOTE: Does not update the allowance if the current allowance is the maximum `uint256`. Requirements: - `from` and `to` cannot be the zero address. - `from` must have a balance of at least `amount`. - the caller must have allowance for ``from``'s tokens of at least `amount`."
      },
      "transferFromAndCall(address,address,uint256)": {
        "details": "Transfer tokens from one address to another and then execute a callback on `to`.",
        "params": {
          "amount": "The amount of tokens to be transferred",
          "from": "The address which you want to send tokens from",
          "to": "The address which you want to transfer to"
        },
        "returns": {
          "_0": "A boolean that indicates if the operation was successful."
        }
      },
      "transferFromAndCall(address,address,uint256,bytes)": {
        "details": "Transfer tokens from one address to another and then execute a callback on `to`.",
        "params": {
          "amount": "The amount of tokens to be transferred",
          "data": "Additional data with no specified format",
          "from": "The address which you want to send tokens from",
          "to": "The address which you want to transfer to"
        },
        "returns": {
          "_0": "A boolean that indicates if the operation was successful."
        }
      },
      "unpause()": {
        "details": "Only owner can unpause"
      },
      "upgradeTo(address)": {
        "details": "Upgrade the implementation of the proxy to `newImplementation`. Calls {_authorizeUpgrade}. Emits an {Upgraded} event."
      },
      "upgradeToAndCall(address,bytes)": {
        "details": "Upgrade the implementation of the proxy to `newImplementation`, and subsequently execute the function call encoded in `data`. Calls {_authorizeUpgrade}. Emits an {Upgraded} event."
      }
    },
    "stateVariables": {
      "FORWARDER_ROLE": {
        "details": "Role allowed to update the trusted forwarder (meta-tx)",
        "return": "compute the Keccak-256 hash of the FORWARDER_ROLE",
        "returns": {
          "_0": "compute the Keccak-256 hash of the FORWARDER_ROLE"
        }
      },
      "PAUSER_ROLE": {
        "details": "Role allowed to switch contract between active/paused state",
        "return": "compute the Keccak-256 hash of the PAUSER_ROLE",
        "returns": {
          "_0": "compute the Keccak-256 hash of the PAUSER_ROLE"
        }
      },
      "PROXY_ROLE": {
        "details": "Role allowed to update implementation behind Proxy",
        "return": "compute the Keccak-256 hash of the PROXY_ROLE",
        "returns": {
          "_0": "compute the Keccak-256 hash of the PROXY_ROLE"
        }
      }
    },
    "title": "The Metastudio's ERC20 token",
    "version": 1
  },
  "userdoc": {
    "events": {
      "TrustedForwarderChanged(address,address)": {
        "notice": "Emitted when the trusted forwarder has been successfully changed"
      }
    },
    "kind": "user",
    "methods": {
      "FORWARDER_ROLE()": {
        "notice": "Role allowed to update the trusted forwarder (meta-tx)"
      },
      "PAUSER_ROLE()": {
        "notice": "Role allowed to switch contract between active/paused state"
      },
      "PROXY_ROLE()": {
        "notice": "Role allowed to update implementation behind Proxy"
      },
      "initialize(address)": {
        "notice": "Contract initialization. 5_000_000_000 tokens are minted"
      },
      "isTrustedForwarder(address)": {
        "notice": "Checks if the address is the current trusted forwarder."
      },
      "pause()": {
        "notice": "Pause is an emergency stop mechanism that stops transfer-related actions"
      },
      "setTrustedForwarder(address)": {
        "notice": "Allows FORWARDER_ROLE granted account to change the `trusted forwarder`"
      },
      "supportsInterface(bytes4)": {
        "notice": "Supported interface ask machine."
      },
      "unpause()": {
        "notice": "Unpause the contract."
      }
    },
    "version": 1
  },
  "storageLayout": {
    "storage": [
      {
        "astId": 1173,
        "contract": "src/contracts/tokens/MetaStudioToken.sol:MetaStudioToken",
        "label": "_initialized",
        "offset": 0,
        "slot": "0",
        "type": "t_uint8"
      },
      {
        "astId": 1176,
        "contract": "src/contracts/tokens/MetaStudioToken.sol:MetaStudioToken",
        "label": "_initializing",
        "offset": 1,
        "slot": "0",
        "type": "t_bool"
      },
      {
        "astId": 3462,
        "contract": "src/contracts/tokens/MetaStudioToken.sol:MetaStudioToken",
        "label": "__gap",
        "offset": 0,
        "slot": "1",
        "type": "t_array(t_uint256)50_storage"
      },
      {
        "astId": 1599,
        "contract": "src/contracts/tokens/MetaStudioToken.sol:MetaStudioToken",
        "label": "_balances",
        "offset": 0,
        "slot": "51",
        "type": "t_mapping(t_address,t_uint256)"
      },
      {
        "astId": 1605,
        "contract": "src/contracts/tokens/MetaStudioToken.sol:MetaStudioToken",
        "label": "_allowances",
        "offset": 0,
        "slot": "52",
        "type": "t_mapping(t_address,t_mapping(t_address,t_uint256))"
      },
      {
        "astId": 1607,
        "contract": "src/contracts/tokens/MetaStudioToken.sol:MetaStudioToken",
        "label": "_totalSupply",
        "offset": 0,
        "slot": "53",
        "type": "t_uint256"
      },
      {
        "astId": 1609,
        "contract": "src/contracts/tokens/MetaStudioToken.sol:MetaStudioToken",
        "label": "_name",
        "offset": 0,
        "slot": "54",
        "type": "t_string_storage"
      },
      {
        "astId": 1611,
        "contract": "src/contracts/tokens/MetaStudioToken.sol:MetaStudioToken",
        "label": "_symbol",
        "offset": 0,
        "slot": "55",
        "type": "t_string_storage"
      },
      {
        "astId": 2190,
        "contract": "src/contracts/tokens/MetaStudioToken.sol:MetaStudioToken",
        "label": "__gap",
        "offset": 0,
        "slot": "56",
        "type": "t_array(t_uint256)45_storage"
      },
      {
        "astId": 7701,
        "contract": "src/contracts/tokens/MetaStudioToken.sol:MetaStudioToken",
        "label": "__gap",
        "offset": 0,
        "slot": "101",
        "type": "t_array(t_uint256)50_storage"
      },
      {
        "astId": 4423,
        "contract": "src/contracts/tokens/MetaStudioToken.sol:MetaStudioToken",
        "label": "__gap",
        "offset": 0,
        "slot": "151",
        "type": "t_array(t_uint256)50_storage"
      },
      {
        "astId": 184,
        "contract": "src/contracts/tokens/MetaStudioToken.sol:MetaStudioToken",
        "label": "_roles",
        "offset": 0,
        "slot": "201",
        "type": "t_mapping(t_bytes32,t_struct(RoleData)179_storage)"
      },
      {
        "astId": 483,
        "contract": "src/contracts/tokens/MetaStudioToken.sol:MetaStudioToken",
        "label": "__gap",
        "offset": 0,
        "slot": "202",
        "type": "t_array(t_uint256)49_storage"
      },
      {
        "astId": 33,
        "contract": "src/contracts/tokens/MetaStudioToken.sol:MetaStudioToken",
        "label": "_roleMembers",
        "offset": 0,
        "slot": "251",
        "type": "t_mapping(t_bytes32,t_struct(AddressSet)7103_storage)"
      },
      {
        "astId": 143,
        "contract": "src/contracts/tokens/MetaStudioToken.sol:MetaStudioToken",
        "label": "__gap",
        "offset": 0,
        "slot": "252",
        "type": "t_array(t_uint256)49_storage"
      },
      {
        "astId": 1474,
        "contract": "src/contracts/tokens/MetaStudioToken.sol:MetaStudioToken",
        "label": "_paused",
        "offset": 0,
        "slot": "301",
        "type": "t_bool"
      },
      {
        "astId": 1579,
        "contract": "src/contracts/tokens/MetaStudioToken.sol:MetaStudioToken",
        "label": "__gap",
        "offset": 0,
        "slot": "302",
        "type": "t_array(t_uint256)49_storage"
      },
      {
        "astId": 4239,
        "contract": "src/contracts/tokens/MetaStudioToken.sol:MetaStudioToken",
        "label": "_HASHED_NAME",
        "offset": 0,
        "slot": "351",
        "type": "t_bytes32"
      },
      {
        "astId": 4241,
        "contract": "src/contracts/tokens/MetaStudioToken.sol:MetaStudioToken",
        "label": "_HASHED_VERSION",
        "offset": 0,
        "slot": "352",
        "type": "t_bytes32"
      },
      {
        "astId": 4379,
        "contract": "src/contracts/tokens/MetaStudioToken.sol:MetaStudioToken",
        "label": "__gap",
        "offset": 0,
        "slot": "353",
        "type": "t_array(t_uint256)50_storage"
      },
      {
        "astId": 2977,
        "contract": "src/contracts/tokens/MetaStudioToken.sol:MetaStudioToken",
        "label": "_nonces",
        "offset": 0,
        "slot": "403",
        "type": "t_mapping(t_address,t_struct(Counter)3469_storage)"
      },
      {
        "astId": 2985,
        "contract": "src/contracts/tokens/MetaStudioToken.sol:MetaStudioToken",
        "label": "_PERMIT_TYPEHASH_DEPRECATED_SLOT",
        "offset": 0,
        "slot": "404",
        "type": "t_bytes32"
      },
      {
        "astId": 3141,
        "contract": "src/contracts/tokens/MetaStudioToken.sol:MetaStudioToken",
        "label": "__gap",
        "offset": 0,
        "slot": "405",
        "type": "t_array(t_uint256)49_storage"
      },
      {
        "astId": 2310,
        "contract": "src/contracts/tokens/MetaStudioToken.sol:MetaStudioToken",
        "label": "_delegates",
        "offset": 0,
        "slot": "454",
        "type": "t_mapping(t_address,t_address)"
      },
      {
        "astId": 2316,
        "contract": "src/contracts/tokens/MetaStudioToken.sol:MetaStudioToken",
        "label": "_checkpoints",
        "offset": 0,
        "slot": "455",
        "type": "t_mapping(t_address,t_array(t_struct(Checkpoint)2301_storage)dyn_storage)"
      },
      {
        "astId": 2320,
        "contract": "src/contracts/tokens/MetaStudioToken.sol:MetaStudioToken",
        "label": "_totalSupplyCheckpoints",
        "offset": 0,
        "slot": "456",
        "type": "t_array(t_struct(Checkpoint)2301_storage)dyn_storage"
      },
      {
        "astId": 2925,
        "contract": "src/contracts/tokens/MetaStudioToken.sol:MetaStudioToken",
        "label": "__gap",
        "offset": 0,
        "slot": "457",
        "type": "t_array(t_uint256)47_storage"
      },
      {
        "astId": 7716,
        "contract": "src/contracts/tokens/MetaStudioToken.sol:MetaStudioToken",
        "label": "_trustedForwarder",
        "offset": 0,
        "slot": "504",
        "type": "t_address"
      },
      {
        "astId": 7829,
        "contract": "src/contracts/tokens/MetaStudioToken.sol:MetaStudioToken",
        "label": "__gap",
        "offset": 0,
        "slot": "505",
        "type": "t_array(t_uint256)49_storage"
      },
      {
        "astId": 1155,
        "contract": "src/contracts/tokens/MetaStudioToken.sol:MetaStudioToken",
        "label": "__gap",
        "offset": 0,
        "slot": "554",
        "type": "t_array(t_uint256)50_storage"
      },
      {
        "astId": 1452,
        "contract": "src/contracts/tokens/MetaStudioToken.sol:MetaStudioToken",
        "label": "__gap",
        "offset": 0,
        "slot": "604",
        "type": "t_array(t_uint256)50_storage"
      }
    ],
    "types": {
      "t_address": {
        "encoding": "inplace",
        "label": "address",
        "numberOfBytes": "20"
      },
      "t_array(t_bytes32)dyn_storage": {
        "base": "t_bytes32",
        "encoding": "dynamic_array",
        "label": "bytes32[]",
        "numberOfBytes": "32"
      },
      "t_array(t_struct(Checkpoint)2301_storage)dyn_storage": {
        "base": "t_struct(Checkpoint)2301_storage",
        "encoding": "dynamic_array",
        "label": "struct ERC20VotesUpgradeable.Checkpoint[]",
        "numberOfBytes": "32"
      },
      "t_array(t_uint256)45_storage": {
        "base": "t_uint256",
        "encoding": "inplace",
        "label": "uint256[45]",
        "numberOfBytes": "1440"
      },
      "t_array(t_uint256)47_storage": {
        "base": "t_uint256",
        "encoding": "inplace",
        "label": "uint256[47]",
        "numberOfBytes": "1504"
      },
      "t_array(t_uint256)49_storage": {
        "base": "t_uint256",
        "encoding": "inplace",
        "label": "uint256[49]",
        "numberOfBytes": "1568"
      },
      "t_array(t_uint256)50_storage": {
        "base": "t_uint256",
        "encoding": "inplace",
        "label": "uint256[50]",
        "numberOfBytes": "1600"
      },
      "t_bool": {
        "encoding": "inplace",
        "label": "bool",
        "numberOfBytes": "1"
      },
      "t_bytes32": {
        "encoding": "inplace",
        "label": "bytes32",
        "numberOfBytes": "32"
      },
      "t_mapping(t_address,t_address)": {
        "encoding": "mapping",
        "key": "t_address",
        "label": "mapping(address => address)",
        "numberOfBytes": "32",
        "value": "t_address"
      },
      "t_mapping(t_address,t_array(t_struct(Checkpoint)2301_storage)dyn_storage)": {
        "encoding": "mapping",
        "key": "t_address",
        "label": "mapping(address => struct ERC20VotesUpgradeable.Checkpoint[])",
        "numberOfBytes": "32",
        "value": "t_array(t_struct(Checkpoint)2301_storage)dyn_storage"
      },
      "t_mapping(t_address,t_bool)": {
        "encoding": "mapping",
        "key": "t_address",
        "label": "mapping(address => bool)",
        "numberOfBytes": "32",
        "value": "t_bool"
      },
      "t_mapping(t_address,t_mapping(t_address,t_uint256))": {
        "encoding": "mapping",
        "key": "t_address",
        "label": "mapping(address => mapping(address => uint256))",
        "numberOfBytes": "32",
        "value": "t_mapping(t_address,t_uint256)"
      },
      "t_mapping(t_address,t_struct(Counter)3469_storage)": {
        "encoding": "mapping",
        "key": "t_address",
        "label": "mapping(address => struct CountersUpgradeable.Counter)",
        "numberOfBytes": "32",
        "value": "t_struct(Counter)3469_storage"
      },
      "t_mapping(t_address,t_uint256)": {
        "encoding": "mapping",
        "key": "t_address",
        "label": "mapping(address => uint256)",
        "numberOfBytes": "32",
        "value": "t_uint256"
      },
      "t_mapping(t_bytes32,t_struct(AddressSet)7103_storage)": {
        "encoding": "mapping",
        "key": "t_bytes32",
        "label": "mapping(bytes32 => struct EnumerableSetUpgradeable.AddressSet)",
        "numberOfBytes": "32",
        "value": "t_struct(AddressSet)7103_storage"
      },
      "t_mapping(t_bytes32,t_struct(RoleData)179_storage)": {
        "encoding": "mapping",
        "key": "t_bytes32",
        "label": "mapping(bytes32 => struct AccessControlUpgradeable.RoleData)",
        "numberOfBytes": "32",
        "value": "t_struct(RoleData)179_storage"
      },
      "t_mapping(t_bytes32,t_uint256)": {
        "encoding": "mapping",
        "key": "t_bytes32",
        "label": "mapping(bytes32 => uint256)",
        "numberOfBytes": "32",
        "value": "t_uint256"
      },
      "t_string_storage": {
        "encoding": "bytes",
        "label": "string",
        "numberOfBytes": "32"
      },
      "t_struct(AddressSet)7103_storage": {
        "encoding": "inplace",
        "label": "struct EnumerableSetUpgradeable.AddressSet",
        "members": [
          {
            "astId": 7102,
            "contract": "src/contracts/tokens/MetaStudioToken.sol:MetaStudioToken",
            "label": "_inner",
            "offset": 0,
            "slot": "0",
            "type": "t_struct(Set)6802_storage"
          }
        ],
        "numberOfBytes": "64"
      },
      "t_struct(Checkpoint)2301_storage": {
        "encoding": "inplace",
        "label": "struct ERC20VotesUpgradeable.Checkpoint",
        "members": [
          {
            "astId": 2298,
            "contract": "src/contracts/tokens/MetaStudioToken.sol:MetaStudioToken",
            "label": "fromBlock",
            "offset": 0,
            "slot": "0",
            "type": "t_uint32"
          },
          {
            "astId": 2300,
            "contract": "src/contracts/tokens/MetaStudioToken.sol:MetaStudioToken",
            "label": "votes",
            "offset": 4,
            "slot": "0",
            "type": "t_uint224"
          }
        ],
        "numberOfBytes": "32"
      },
      "t_struct(Counter)3469_storage": {
        "encoding": "inplace",
        "label": "struct CountersUpgradeable.Counter",
        "members": [
          {
            "astId": 3468,
            "contract": "src/contracts/tokens/MetaStudioToken.sol:MetaStudioToken",
            "label": "_value",
            "offset": 0,
            "slot": "0",
            "type": "t_uint256"
          }
        ],
        "numberOfBytes": "32"
      },
      "t_struct(RoleData)179_storage": {
        "encoding": "inplace",
        "label": "struct AccessControlUpgradeable.RoleData",
        "members": [
          {
            "astId": 176,
            "contract": "src/contracts/tokens/MetaStudioToken.sol:MetaStudioToken",
            "label": "members",
            "offset": 0,
            "slot": "0",
            "type": "t_mapping(t_address,t_bool)"
          },
          {
            "astId": 178,
            "contract": "src/contracts/tokens/MetaStudioToken.sol:MetaStudioToken",
            "label": "adminRole",
            "offset": 0,
            "slot": "1",
            "type": "t_bytes32"
          }
        ],
        "numberOfBytes": "64"
      },
      "t_struct(Set)6802_storage": {
        "encoding": "inplace",
        "label": "struct EnumerableSetUpgradeable.Set",
        "members": [
          {
            "astId": 6797,
            "contract": "src/contracts/tokens/MetaStudioToken.sol:MetaStudioToken",
            "label": "_values",
            "offset": 0,
            "slot": "0",
            "type": "t_array(t_bytes32)dyn_storage"
          },
          {
            "astId": 6801,
            "contract": "src/contracts/tokens/MetaStudioToken.sol:MetaStudioToken",
            "label": "_indexes",
            "offset": 0,
            "slot": "1",
            "type": "t_mapping(t_bytes32,t_uint256)"
          }
        ],
        "numberOfBytes": "64"
      },
      "t_uint224": {
        "encoding": "inplace",
        "label": "uint224",
        "numberOfBytes": "28"
      },
      "t_uint256": {
        "encoding": "inplace",
        "label": "uint256",
        "numberOfBytes": "32"
      },
      "t_uint32": {
        "encoding": "inplace",
        "label": "uint32",
        "numberOfBytes": "4"
      },
      "t_uint8": {
        "encoding": "inplace",
        "label": "uint8",
        "numberOfBytes": "1"
      }
    }
  }
}